:020000040800F2
:10300000680D0020893100084F4700084D46000830
:103010004D470008A3330008914B00080000000052
:1030200000000000000000000000000053470008FE
:10303000E73300080000000051470008554700082A
:10304000A3310008A3310008A3310008A331000810
:10305000A3310008A3310008A3310008A331000800
:10306000A3310008A3310008A3310008A3310008F0
:10307000A3310008A3310008A5330008B1330008CC
:10308000A3310008A3310008A3310008A3310008D0
:10309000A3310008A3310008A3310008A3310008C0
:1030A000A3310008A3310008A3310008A3310008B0
:1030B000A3310008A331000800000000A33100087C
:1030C000A33100080000000000000000A331000848
:1030D00000000000794B0008A33100080000000048
:1030E000A3310008A3310008A331000800F002F862
:1030F00000F03AF80AA090E8000C82448344AAF158
:103100000107DA4501D100F02FF8AFF2090EBAE855
:103110000F0013F0010F18BFFB1A43F0010318470B
:10312000381D0000581D0000103A24BF78C878C12F
:10313000FAD8520724BF30C830C144BF04680C60BD
:10314000704700000023002400250026103A28BF05
:1031500078C1FBD8520728BF30C148BF0B60704709
:103160001FB51FBD10B510BD00F0E2F81146FFF706
:10317000F7FF01F067FD00F000F903B4FFF7F2FF7D
:1031800003BC00F007F900000948804709480047E0
:10319000FEE7FEE7FEE7FEE7FEE7FEE7FEE7FEE707
:1031A000FEE7FEE704480549054A064B7047000064
:1031B000B7470008ED30000868070020680D0020C0
:1031C0006809002068090020B2F120030AD5C2F185
:1031D000200320FA02F001FA03F321FA02F140EA97
:1031E0000300704721FA03F04FF000017047032AF3
:1031F00040F2308010F0030C00F0158011F8013B14
:10320000BCF1020F624498BF11F801CB00F8013BFA
:1032100038BF11F8013BA2F1040298BF00F801CBBE
:1032200038BF00F8013B11F0030300F04F80083A6B
:10323000C0F0088051F8043B083A51F804CBA0E8EC
:103240000810F5E7121D5CBF51F8043B40F8043B41
:10325000AFF30080D20724BF11F8013B11F801CB76
:1032600048BF11F8012B24BF00F8013B00F801CB47
:1032700048BF00F8012B70474FF0000200B513461D
:1032800094469646203922BFA0E80C50A0E80C5086
:10329000B1F12001BFF4F7AF090728BFA0E80C5037
:1032A00048BF0CC05DF804EB890028BF40F8042B30
:1032B00008BF704748BF20F8022B11F0804F18BF9D
:1032C00000F8012B704770477047704710B5203ADF
:1032D000C0F00B80B1E81850203AA0E81850B1E8CF
:1032E0001850A0E81850BFF4F5AF5FEA027C24BF85
:1032F000B1E81850A0E8185044BF18C918C0BDE87C
:1033000010405FEA827C24BF51F8043B40F8043B44
:1033100008BF7047D20728BF31F8023B48BF11F8F9
:10332000012B28BF20F8023B48BF00F8012B704753
:10333000754600F02BF8AE4605006946534620F06E
:103340000700854618B020B5FFF72CFFBDE82040E8
:103350004FF000064FF000074FF000084FF0000B51
:1033600021F00701AC46ACE8C009ACE8C009ACE804
:10337000C009ACE8C0098D46704710B50446AFF3EC
:1033800000802046BDE81040FFF7F7BE00487047B8
:103390000807002001491820ABBEFEE72600020006
:1033A0007047FEE7014800F01BB90000A4020020AE
:1033B000014800F015B900006002002030B590F817
:1033C00040500124AC40C56B6C6004686360436886
:1033D000102B036803D099600068C26030BD9A600A
:1033E0000068C16030BD704772B6FEE70649002034
:1033F000C8610648016941F004010161016941F0B9
:103400004001016170470000E802002000200240F6
:10341000064A0021D16106490A6942F002020A61A6
:103420004861086940F0400008617047E8020020E8
:1034300000200240044B0022DA61044A136943F081
:103440000103136101807047E80200200020024060
:1034500014480022C168CB06134904D5CA6942F05A
:103460000202CA611022C3685B0705D5CB6943F02D
:103470000103CB6142F00402C369DB0707D0CB69CB
:1034800043F00403CB61C16921F00101C161A2F5E0
:103490008071013901D0C2607047C16921F001011A
:1034A000C161704700200240E802002070B5054667
:1034B00000F058FB0646114C09E0681C07D025B106
:1034C00000F050FB801BA84201D9032070BDE068CA
:1034D000C007F2D1E068800601D52020E060E068F6
:1034E000C00605D4E069C00702D1E068400703D5F3
:1034F000FFF7AEFF012070BD002070BD002002402C
:1035000010B590F821100022022905D00421816312
:1035100080F82020012010BD01680B6823F00E0305
:103520000B6001680B6823F001030B6090F84030DA
:10353000C46B012101FA03F3636080F8211080F865
:103540002020104610BD000010B590F82110002476
:10355000022903D00421816301243DE001680A6847
:1035600022F00E020A6001680A6822F001020A6075
:103570001A4A0168914201D1012121E0174A14320F
:10358000914201D110211BE0144A2832914201D10D
:10359000891515E0114A3C32914201D189140FE09E
:1035A0000E4A5032914202D14FF4803108E00B4A6A
:1035B0006432914202D14FF4801101E04FF08071EA
:1035C000064A083A5160012180F82110002180F854
:1035D0002010416B01B18847204610BD0800024011
:1035E0002DE9F05FC16B0C6801680B68D0F840C032
:1035F000042202FA0CF2494DDFF824A1494E4A4F49
:10360000DFF828B1DFF828E122422CD05A072AD56A
:103610000A68920603D40A6822F004020A6001686C
:10362000A94201D1042219E0514501D1402215E0FF
:10363000B14202D14FF4806210E0B94202D14FF49E
:1036400080420BE0594502D14FF4802206E07145DB
:1036500002D14FF4800201E04FF080622F49083917
:103660004A60C16A3BE04FF0020808FA0CF818EA19
:10367000040F4FF000094FF0010235D05FEA837864
:1036800032D50B689B0605D40B6823F00A030B6048
:1036900080F821200168A94201D1022219E0514598
:1036A00001D1202215E0B14202D14FF4007210E0A6
:1036B000B94202D14FF400520BE0594502D14FF408
:1036C000003206E0714502D14FF4001201E04FF0E4
:1036D0000072124908394A6080F82090816A0029F6
:1036E0001AD0BDE8F05F0847082505FA0CF5254219
:1036F00012D01B0710D50B6823F00E030B6090F857
:103700004010C36B02FA01F15960826380F82120F6
:1037100080F82090016BE2E7BDE8F09F08000240CE
:103720001C000240300002404400024058000240A9
:103730006C00024030B528B308C81349142219445C
:10374000B1FBF2F18900C163104981630221417725
:103750001A6843F6F0718A43D0E900142143D0E996
:1037600002452C4321430469214344692143846970
:1037700021431143196000214163012242770177FF
:10378000084630BD012030BDF8FFFDBF00000240FB
:1037900070B5044690F82000002501280CD00120C7
:1037A00084F8200094F821600020012E06D084F8CF
:1037B00020000225284670BD022070BD022684F834
:1037C0002160A0632068066826F001060660204696
:1037D000FFF7F4FDE06A00282068016802D041F09C
:1037E0000E0106E021F0040101602068016841F04B
:1037F0000A0101602068016841F001010160D9E718
:1038000070B5044600F0AEF90546601C02D00448CD
:103810000078044400F0A6F9401BA042FAD370BD22
:10382000080000202DE9F047054626480F460126EE
:10383000017E01290FD00121814601762868DFF839
:1038400088804CF25034022808D0A2462046FFF768
:103850002DFEA8B131E00220BDE8F0872046FFF739
:1038600025FE08BB0120FFF7C1FD2046FFF71EFE25
:10387000D8F81010064621F00401C8F810101CE01A
:103880004FF0FF303860AC6811E02046FFF7C0FD14
:103890005046FFF70BFED8F81010060021F0020189
:1038A000C8F8101001D03C6007E004F58064D5E949
:1038B000020100EB8120A042E7D8002189F818100E
:1038C0003046C9E7E80200200020024003480169B1
:1038D00041F080010161002070470000002002409B
:1038E0002DE9F05F07461C4888460024017E1546F6
:1038F0001E46012909D00121814601764CF2503A39
:103900005046FFF7D3FD18B122E00220BDE8F09F3A
:10391000012F02D0022F00D00427D346DFF83CA0AD
:10392000220128463146FFF74FFC81B208EB4400E4
:10393000FFF780FD5846FFF7B9FDDAF8102022F0B6
:103940000102CAF8102018B9641CE4B2BC42E7D3E3
:10395000002289F81820D9E7E80200200020024060
:10396000064900200A69120607D5054A4A60054A39
:103970004A600969090600D501207047002002400D
:1039800023016745AB89EFCD2DE9F84FDFF89C9116
:103990000024A9F1040B23460F2709F1040AABF117
:1039A000040EBBE00125A5402A40AA4276D1DFF8EB
:1039B00080C14E68A6EB0C0866452BD00DDC032EAB
:1039C00034D005DC36B3012E19D0022E2FD11BE0E6
:1039D000112E16D0122E2AD119E0B8F5881F19D051
:1039E00006DCB8F5803F15D0B8F5801F1FD111E077
:1039F000B8F5001F0ED0B8F5041F18D10AE0CB6847
:103A000015E0CB681B1D12E0CB6808330FE0CB68D4
:103A10000C330CE08B682BB1012B4FF0080303D063
:103A2000456104E0042302E0056100E00023FF2A71
:103A300001D8064601E000F104064FEA840501D9E9
:103A4000A5F12005D6F8008007FA05FC28EA0C0845
:103A500003FA05F548EA0508C6F800804D68ED0050
:103A60005BD5344DAE6946F00106AE61AD6924F018
:103A7000030605F0010500952F4D06EB050CDCF85B
:103A80000850A607360F07FA06F825EA0805DFF8FA
:103A9000AC80404503D14FF0000810E03DE0DFF876
:103AA000A080404502D14FF0010808E0DFF8948083
:103AB000404502D14FF0020801E04FF0030808FA38
:103AC00006F848EA0508CCF808804D68D9F8006087
:103AD000ED024D4601D5164300E096432E604D6839
:103AE000DAF80060AD02554601D5164300E0964372
:103AF0002E604D68DBF80060AD035D4601D51643CE
:103B000000E096432E604D68DEF80060ED037546D8
:103B100001D5164300E096432E60641C0A6832FA11
:103B200004F57FF43FAFBDE8F88F000008040140C2
:103B30000000111000100240000001400008014088
:103B4000000C014000100140C26821EA02030A4053
:103B500043EA0241016170470AB1016170470904FB
:103B6000FBE7000001488068704700000800002063
:103B70000248816802781144816070470800002083
:103B8000074810B5016841F010010160032000F002
:103B900075F80F2000F006F800F024F8002010BDA2
:103BA0000020024070B50D4D04464FF47A7128781C
:103BB000B1FBF0F00A490968B1FBF0F000F0DCFA63
:103BC00048B9102C07D200222146501E00F036F8CA
:103BD00000206C6070BD012070BD00000800002056
:103BE000140000200C4808B5816941F00101816191
:103BF000816901F001010091C16941F08051C16109
:103C0000C06900F0805000900448416821F0E061F4
:103C100041F00071416008BD001002400000014009
:103C2000002809DB00F01F020121914040098000BB
:103C300000F1E020C0F8001170470000F0B40E4B16
:103C40001B680C46C3F30223C3F10705042D00D9FA
:103C50000425191D072901D2002300E0DB1E0126DF
:103C600006FA05F1491E214099409E40761E1640F5
:103C70003143F0BC00F08DBF0CED00E0064900F0D0
:103C8000070208684FF6FF03184040EA0220034A83
:103C900010430860704700000CED00E00000FA05DA
:103CA0002DE9F0470F46050061D0434E306800F023
:103CB0000700B84209D2306820F00700384330606E
:103CC000306800F00700B84251D128683B4C8107AA
:103CD00012D5400703D5606840F4E0606060287842
:103CE000000703D5606840F4605060606068A968B0
:103CF00020F0F000084360602878C00728D068688A
:103D0000012810D02168022810D0890700292EDA56
:103D1000616821F0030101436160FFF723FF8046E2
:103D200041F288390DE021688903EFE78901EDE769
:103D3000FFF718FFA0EB0801494502D90320BDE8B1
:103D4000F0876068696800F00C00B0EB810FEFD17C
:103D5000306800F00700B8420BD9306820F0070047
:103D600038433060306800F00700B84201D00120CD
:103D7000E5E72878400705D56068E96820F4E06049
:103D8000084360602878000706D56068296920F438
:103D9000605040EAC100606000F038F86168084A8D
:103DA000C1F30311515CC840064908600648006829
:103DB000FFF7F8FE0020C2E700200240001002409A
:103DC0003E4E0008140000200C0000200448054965
:103DD00000684968044AC1F30221515CC840704739
:103DE00014000020001002404E4E0008044805490F
:103DF00000684968044AC1F3C221515CC840704759
:103E000014000020001002404E4E00080E4A516877
:103E10000E4801F00C03042B11D0082B0FD10C48D5
:103E2000C1F38343C903C05C0AD55168084AC1F392
:103E30004041921E515C054A5043B0FBF1F070477F
:103E400004494843704700000010024000127A0005
:103E50002E4E000800093D002DE9F84F040070D0F7
:103E60002078C04DC00749D06868C0F381000128A0
:103E700007D06868C0F38100022809D16868C003D0
:103E800006D52868800339D560680028E7D035E07A
:103E90006068B0F5803F0BD010B1B0F5A02F11D005
:103EA000286820F480302860286820F4802002E010
:103EB000286840F480302860606890B1FFF752FEB7
:103EC00006460AE0286840F480202860F0E700BF3A
:103ED000FFF748FE801B642873D828688003F7D555
:103EE0000CE0FFF73FFE064605E000BFFFF73AFE95
:103EF000801B6428F0D828688003F7D420789A4E75
:103F000080074FF001094FF0000839D5686810F0BC
:103F10000C0F07D06868C0F38100022809D16868D7
:103F2000C00306D42868800714D52069012808D169
:103F300010E02069B0B1C6F80090FFF713FE074605
:103F400005E00AE1FFF70EFEC01B0228C4D828686E
:103F50008007F7D52868616920F0F80040EAC100C1
:103F600028600DE0C6F80080FFF7FCFD074604E07E
:103F7000FFF7F8FDC01B022823D828688007F7D474
:103F8000207800072CD57948A169D9B1C0F80090F4
:103F9000FFF7E8FD074604E0FFF7E4FDC01B022839
:103FA0000FD8686A8007F7D571484FF4FA51006856
:103FB000B0FBF1F0009000BF0098411E0091FAD2D2
:103FC0000EE080E0C0F80080FFF7CCFD074604E07B
:103FD000FFF7C8FDC01B022875D8686A8007F7D4B0
:103FE0002078400760D5E8690027C00008D4E86958
:103FF00040F08050E861E869012700F080500090AF
:104000005C480168C90513D40168834641F4807196
:104010000160FFF7A7FD824606E000BFFFF7A2FDA3
:10402000A0EB0A0064284ED8DBF80000C005F5D5E7
:10403000E06801280AD008B1052813D0286A20F0CA
:1040400001002862286A20F0040002E0286A40F09B
:1040500001002862E06841F2883B98B1FFF782FDD9
:1040600082460BE0286A40F004002862EEE700BFB9
:10407000FFF778FDA0EB0A0159455AD8286A800756
:10408000F6D50CE0FFF76EFD824605E0FFF76AFD0E
:10409000A0EB0A0159454CD8286A8007F6D41FB115
:1040A000E86920F08050E861E06988B36968C1F38D
:1040B0008101022944D00228C6F8608004D0FFF7AD
:1040C00051FD044638E034E0FFF74CFD074604E0BC
:1040D000FFF748FDC01B02282BD828688001F7D4C1
:1040E000206AB0F5803F05D16868A16820F40030EF
:1040F00008436860D4E908010843696821F4741131
:1041000008436860C6F86090FFF72CFD044606E09F
:1041100025E000BFFFF726FD001B022809D828680C
:104120008001F7D51BE000BFFFF71CFD001B022834
:1041300002D90320BDE8F88F28688001F4D40EE08E
:104140000128F7D06868226A00F48031914204D1D6
:10415000616A00F47010884201D00120EAE7002073
:10416000E8E70000001002400000424280044242A2
:10417000140000200070004010B5401EB0F1807F98
:1041800001D3012010BD4FF0E02460610F216017C2
:1041900000F0FFFC0020A06107202061002010BD7E
:1041A000704710B504460068406994F84110C0F3A8
:1041B000C010212911D180B12068143050E8001FAF
:1041C00021F0800140E80012002AF5D1A06B08B16F
:1041D000FFF796F9204600F0BBFB2068406994F891
:1041E0004210C0F38010222911D180B12068143010
:1041F00050E8001F21F0400140E80012002AF5D1EC
:10420000E06B08B1FFF77CF9204600F07AFB002054
:1042100010BD7047F8B5016804460868CA684B6964
:1042200010F00F0F4FF0000559D003F0010602F413
:104230009077374365D0C10705D0D10503D5616CB0
:1042400041F001016164410705D5D90703D0616CD4
:1042500041F002016164810705D5D90703D0616C83
:1042600041F004016164010707D502F020013143E8
:1042700003D0616C41F008016164616C00293AD09F
:10428000800604D5900602D5204600F06FFB20681A
:104290004069616CC0F38010090700D460B3204608
:1042A00000F02FFB20684069400621D520681430BB
:1042B00050E8001F21F0400140E80012002AF5D12B
:1042C000E06BA8B16D494163E06BFFF73DF9002851
:1042D00011D0E06B416B01B0BDE8F04008478306A8
:1042E0000FD593060DD52046BDE8F84000F03EBB43
:1042F0002046FFF78EFFF8BD2046FFF78AFF656472
:10430000F8BD266B2023012E7CD1C6067AD5D606B1
:1043100078D508684868009048694FF00206400662
:1043200040D5E16B086840680004000CE8D0A28D1D
:104330008242E5D9E085886920282DD020680C309C
:1043400050E8001F21F4807140E80012002AF5D1E6
:104350002068143050E8001F21F0010140E80012ED
:10436000002AF5D12068143050E8001F21F04001E8
:1043700040E80012002AF5D184F842302563206815
:104380000C3050E8001F21F0100140E80012002A14
:10439000F5D1E06BFFF7B4F86663A08DE18D401AAC
:1043A00081B22AE0A08DE18D401A81B2E08D002813
:1043B000A6D00029A4D022680C3252E8000F20F4C5
:1043C000907042E80007002FF5D12068143050E8C3
:1043D000002F22F0010240E80027002FF5D184F8D9
:1043E0004230256320680C3050E8002F22F0100284
:1043F00040E80023002BF5D166632046FFF7D0FE8E
:10440000F8BDFFE705062BD5150629D594F8410020
:104410002128F5D1A068B0F5805F01D12069B0B145
:10442000206A411C2162216800784860E08C401EAF
:104430000004000CE084E3D12068C16821F0800111
:10444000C1602068C16841F04001C160D8E7206ABE
:104450000088C0F308004860206A801C2062E5E7FD
:104460004006CDD55006CBD5CA68204622F0400282
:10447000CA6084F8413000F0E7F8C1E7B9470008A6
:1044800070B5040004D094F84100002510B106E096
:10449000012070BD84F84050204600F023F824200D
:1044A00084F841002068C16821F40051C1602046B1
:1044B00000F0BEFA2068016921F490410161206892
:1044C000416921F02A0141612068C16841F400512D
:1044D000C1606564202084F8410084F8420065636F
:1044E000002070BDF0B585B000240646009401940C
:1044F000029403940068294988424CD12848816974
:1045000041F480418161816901F4804104918169B4
:1045100041F0040181618069224D00F004000490A3
:104520004FF4007000900220019003200390694630
:104530002846FFF729FA2815CDE9000469462846E0
:104540000294FFF721FA194D17488027C5E90004A6
:10455000C5E902472C616C61AC612846EC61FFF74C
:10456000E9F808B1FEF740FFF5636E620F4D0E48A3
:104570004435143801C5102091C50C4845F8104940
:1045800044306C61AC61EC61FFF7D4F808B1FEF720
:104590002BFFB5636E6205B0F0BD0000003801402E
:1045A0000010024000080140580002406002002054
:1045B00090F84230202B01D00220704721B11AB16F
:1045C0000023036300F090BA0120704770477047E2
:1045D00070B5044690F84100202801D0022070BD3B
:1045E00049B342B32162A284E284002060642123A3
:1045F00084F84130A56B114BAB62A56B104BEB629D
:10460000A56B104B2B63A36B5863256813462A1DBB
:10461000A06BFFF7BDF821686FF0400008602068CC
:10462000143050E8001F41F0800140E80012002AD9
:10463000F5D1002070BD012070BD0000B748000812
:10464000F9480008C947000870477047FEE70000B6
:104650000D4808B5416941F00101416140690022FE
:1046600000F00100009011460E20FFF7E7FA0E203F
:10467000FFF7D6FA002211460F20FFF7DFFABDE858
:1046800008400F20FFF7CCBA0010024070B586B08A
:10469000002418480094019402940394816941F025
:1046A00010018161816901F010010491816941F07B
:1046B00020018161816901F020010491816941F04B
:1046C0000401816180690C4E00F004004FF4005534
:1046D0000490002229463046FFF73EFA012000955B
:1046E000CDE901040220039069463046FFF74CF9FA
:1046F00006B070BD001002400010014010B5114C12
:104700000F480C2120604FF4E13060600020A06071
:10471000E060C4E90401A061E0612046FFF7B0FE5B
:1047200008B1FEF761FE2068C16841F01001C16068
:10473000BDE810404FF4807203490248FFF738BFCC
:10474000003801401802002018010020FEE7FEE7B3
:1047500070477047FFF70CBA30B58FB02821684614
:10476000FEF78AFD14210AA8FEF786FD0121080440
:10477000CDE900100024029402250491CDE90750F0
:104780004FF4E01009906846FFF766FB08B172B677
:10479000FEE70F20CDE90A054FF48060CDE90C401B
:1047A00002210AA80E94FFF77BFA002801D072B606
:1047B000FEE70FB030BD704710B5406A0021C185DB
:1047C000C184FFF726FD10BD70B5446A20684069BA
:1047D00094F84110C0F3C0100025212904D118B16C
:1047E000E584204600F0B4F82068406994F842104F
:1047F000C0F38010222904D118B1E585204600F0CD
:1048000080F8606C40F0100060642046FFF701FD06
:1048100070BD10B50146406A096809684FF0000292
:1048200089062ED4C28501680C3151E8003F23F47B
:10483000807341E80034002CF5D10168143151E84F
:10484000003F23F0010341E80034002CF5D101685A
:10485000143151E8003F23F0400341E80034002CBC
:10486000F5D1202180F84210016B012909D101689E
:104870000C3151E8003F23F0100341E80034002CD4
:10488000F5D14263016B012902D0FFF79FFE10BDF5
:10489000818DFFF785FC10BD10B5406A0121416391
:1048A000016B012902D0FFF792FE10BD818D4908EE
:1048B000FFF776FC10BD10B50146406A096809682B
:1048C000890616D40021C1840168143151E8002FF3
:1048D00022F0800241E80023002BF5D101680C3161
:1048E00051E8002F42F0400241E80023002BF5D1AF
:1048F00010BDFFF7A9FE10BD10B5406AFFF7A5FE79
:1049000010BD01680C3151E8002F22F4907241E88B
:104910000023002BF5D10168143151E8002F22F05B
:10492000010241E80023002BF5D1016B012909D1D7
:1049300001680C3151E8002F22F0100241E80023F9
:10494000002BF5D1202180F842100021016370472F
:1049500001680C3151E8002F22F0C00241E8002329
:10496000002BF5D1202180F84110704708B590F850
:104970004210222901D0022008BD82684FF48053E2
:104980009A4201D1016921B1816A9A421BD04AB190
:104990000AE00268816A5268C2F308020A80816AEA
:1049A000891C08E0026972B10268526802F07F0255
:1049B0000A70816A491C8162C18D491E0904090C73
:1049C000C18503D01BE002685268F1E70168CA683C
:1049D00022F02002CA600168CA6822F48072CA60AC
:1049E00001684A6922F001024A61202180F84210E0
:1049F00000214163026B012A03D0FFF7E7FD00208D
:104A000008BD016301680C3151E8002F22F010024B
:104A100041E80023002BF5D101680A68D20602D5CF
:104A20000A6849680091818DFFF7BAFBE7E700004B
:104A300070B5044600680169E26821F440511143F1
:104A400001612169A0680843616908432168CA6857
:104A500041F20C639A430243CA6020684169A2692B
:104A600021F44071114341611E492068884202D1FE
:104A7000FFF7BCF901E0FFF7A9F900EBC00101EB7A
:104A80000012606864218000B2FBF0F3B3FBF1F325
:104A90006FF018067343B2FBF0F5B2FBF0F605EBCE
:104AA0008305322303EB0515B5FBF1F5B6FBF1F6F3
:104AB00005F0F00505EB0615B2FBF0F6B2FBF0F0E1
:104AC000B0FBF1F06FF01802504306EB800003EBEF
:104AD0000010B0FBF1F0216800F00F00284488605E
:104AE00070BD00000038014038B5816204468285FF
:104AF000002013466064222284F84220E56B1B4AA2
:104B0000AA62E56B1A4AEA62E56B1A4A2A63E26B0B
:104B100050630A462168E06B091DFEF739FE2068E4
:104B2000016840680090206948B120680C3050E866
:104B3000001F41F4807140E80012002AF5D120687E
:104B4000143050E8001F41F0010140E80012002A33
:104B5000F5D12068143050E8001F41F0400140E8D2
:104B60000012002AF5D1002038BD000013480008CB
:104B700099480008C947000810B5044800F09CF89F
:104B8000BDE810400148FFF745BB000018020020B7
:104B9000FEE70907090E002804DB00F1E02080F899
:104BA0000014704700F00F0000F1E02080F8141DA1
:104BB000704700001B4810B5017801290CD1002175
:104BC00001701948194903780A884E2B06D08118BC
:104BD00011F8011C4E2901D0FF2010BD4178EE29AB
:104BE00005D18178EE2902D1C078EE2805D00E4992
:104BF0000F48FEF7FCFA002010BD01220D490E48B7
:104C000000F094F8012080F31088BFF34F8F0B4819
:104C100001680B4A01F4E06111430160BFF34F8F5B
:104C200000BFFDE70400002018010020060000205E
:104C30001800002002000020005800080CED00E0E1
:104C40000400FA05164915480860FEF799FFFFF7BA
:104C500083FDFFF71BFDFFF7FBFCFFF74FFD002275
:104C600001212520FEF7EAFF2520FEF7D9FF0D4C94
:104C70000D4D4FF400560D4FFFF79CFF2070FF289D
:104C800004D02A880A490B48FFF7A2FC314638466F
:104C9000FEF75AFF3220FEF7B3FDEDE700300008C3
:104CA00008ED00E000000020060000200010014098
:104CB000180000201802002008B50068104988423A
:104CC0001CD10068C043C00618D40E4800680168B3
:104CD000406800900B48FFF764FA0A4848300068C3
:104CE0004068C0F5807108484180012101700A02C6
:104CF000BDE8084005490348FFF75ABC08BD00005D
:104D00000038014018020020040000201801002093
:104D100010B5002306E000BF30F8024B21F8134025
:104D20005B1C9BB29342F7D310BD00002DE9F04FFE
:104D3000A0F1006485B015468A468346B4F1007F31
:104D400058D2FEF70DFEA70AC4F34806C6F5007454
:104D5000A54200D82C46DFF8A49000BF4FF00060B9
:104D600000EB872080464FF400722449FFF7D0FF04
:104D700000204FF6FF7106E0331839F813208A42FD
:104D800003D1401C80B2A042F6D3A0422CD2002016
:104D900000900120CDE90280019004A96846FEF749
:104DA00041FD0020494606E03AF810208319401CD6
:104DB00021F8132080B2A042F6D3104940464FF4A8
:104DC000007200BF00F01CF8A54211D0281B0AEBAE
:104DD000440A0BEB440B002685B24FF400747F1C91
:104DE000A542BBD82C46B9E7224651465846E9E7CA
:104DF000FEF76CFD05B0BDE8F08F00000803002051
:104E00002DE9F04116460F46054600240AE000BF92
:104E100037F81420002329460120FEF761FD641CA9
:104E2000A4B2AD1CB442F3D3BDE8F0810102020389
:104E30000405060708090A0B0C0D0E0F10100000E0
:104E4000000000000000010203040607080900003A
:104E50000000010203040000784E0008000000205A
:104E60001800000028310008904E000818000020AB
:104E7000500D0000443100080000AAAA0000000004
:104E80000100000010000000000000000024F400F9
:04000005080030EDD2
:00000001FF
