:020000040800F2
:100000000818002091010008211B00081F1A000891
:100010001D1B0008B9040008A11F00080000000013
:10002000000000000000000000000000511B00085C
:10003000BD04000800000000251B0008531B000839
:10004000AB010008AB010008AB010008AB010008E0
:10005000AB010008AB010008AB010008AB010008D0
:10006000AB010008AB010008AB010008AB010008C0
:10007000AB010008AB010008AB010008AB010008B0
:10008000AB010008AB010008AB010008AB010008A0
:10009000AB010008AB010008AB010008AB01000890
:1000A000AB010008AB010008AB010008AB01000880
:1000B000AB010008AB01000800000000AB01000824
:1000C000AB0100080000000000000000AB010008C8
:1000D00000000000911F0008AB01000800000000B4
:1000E000AB010008AB010008AB01000800F002F80A
:1000F00000F03FF80AA090E8000C82448344AAF183
:100100000107DA4501D100F034F8AFF2090EBAE880
:100110000F0013F0010F18BFFB1A43F0010318473B
:100120003825000058250000103A24BF78C878C14F
:10013000FAD8520724BF30C830C144BF04680C60ED
:10014000704700000023002400250026103A28BF35
:1001500078C1FBD8520728BF30C148BF0B60704739
:10016000642900F08980002070471FB51FBD10B5BD
:1001700010BD00F06FF91146FFF7F7FF01F0AAFF7D
:1001800000F08DF903B4FFF7F2FF03BC01F04AFF62
:100190000948804709480047FEE7FEE7FEE7FEE71B
:1001A000FEE7FEE7FEE7FEE7FEE7FEE70448054957
:1001B000054A064B70470000C11B0008ED0000080F
:1001C000F80C002008180020F80E00200814002069
:1001D0007047B2F120030AD5C2F1200320FA02F0E1
:1001E00001FA03F321FA02F140EA0300704721FA11
:1001F00003F04FF0000170470FB4044910B503AA93
:10020000029800F0F9F810BC5DF814FB180000200B
:100210002DE9F0410E460446002020622046E168A8
:10022000884730B3252805D0D4E901219047206ABA
:10023000401CF2E7E168204600278847050018D0F7
:10024000A5F14100192802D820354FF40067324645
:10025000294620462760FFF783FF40B1012804D0DC
:10026000F61D26F007060836D8E7361DD6E72846DD
:10027000DAE7206ABDE8F0812DE9F0410646002466
:1002800010687529314616A510D0AFF300800028FC
:1002900002DA404213A507E031688A0701D512A5AA
:1002A00002E0490704D511A5012401E0AFF3008065
:1002B00000210A2206F1240709E0B0FBF2FCB0FBA2
:1002C000F2F302FB1C00303078541846491C002819
:1002D000F3D123462A463046BDE8F04100F033B85A
:1002E000000000002D0000002B0000002000000096
:1002F0004FF0000200B5134694469646203922BFBF
:10030000A0E80C50A0E80C50B1F12001BFF4F7AF09
:10031000090728BFA0E80C5048BF0CC05DF804EBEB
:10032000890028BF40F8042B08BF704748BF20F859
:10033000022B11F0804F18BF00F8012B7047704757
:100340007047704770472DE9F0470D469946924631
:10035000044600F124080168880604D5E06921F00C
:100360001001216000E00120A84201DD471B00E0F0
:100370000027A1697A1902EB0900081AA061207808
:10038000C00602D42046AFF30080002608E0D4E97E
:1003900001211AF806009047206A401C761C206252
:1003A0004E45F4DB2078C0060AD52046AFF3008026
:1003B00006E0D4E9012130209047206A401C2062E9
:1003C000381EA7F10107F4DC07E0D4E9012118F891
:1003D00005009047206A401C2062281EA5F10105F7
:1003E000F3DC2046AFF300802078000602D502201F
:1003F000BDE8F0870120FBE7074B70B50D467B4455
:1004000000F011F80446284600F020F810B14FF033
:10041000FF3070BD204670BD271C000001694A1CDA
:1004200002610878704700B58FB0CDE90131002135
:10043000059105497944CDE9031011466846FFF757
:10044000E7FE0FB000BD0000E5FFFFFF007B00F0FE
:1004500080007047754600F02BF8AE4605006946EF
:10046000534620F00700854618B020B5FFF79EFEE2
:10047000BDE820404FF000064FF000074FF00008A5
:100480004FF0000B21F00701AC46ACE8C009ACE826
:10049000C009ACE8C009ACE8C0098D46704710B58A
:1004A0000446AFF300802046BDE81040FFF76ABE67
:1004B00000487047980C002000BFFEE7704772B6F6
:1004C00000BFFEE70021074AD1610749096941F0F1
:1004D0000401054A11611146096941F040011161A9
:1004E0007047000078000020002002400021074AE9
:1004F000D1610749096941F00201054A11611146BC
:100500004861096941F0400111617047780000209D
:10051000002002400022054BDA61054A126942F0D0
:100520000102034B1A61018070470000780000202F
:100530000020024000201E49C96801F0100139B1B5
:100540001C49C96941F002011A4AD16140F010000A
:100550001749C96801F0040139B11649C96941F068
:100560000101144AD16140F004001149C96901F048
:10057000010169B10F49C96941F004010D4AD16116
:1005800000BF0B49C96921F00101094AD16100BFCF
:1005900000BF40F20111884206D10549C96921F026
:1005A0000101034AD16101E00149C86000BF704701
:1005B000002002407800002070B5044600F034FBB3
:1005C000054609E0601C38B124B100F02DFB401B4A
:1005D000A04201D9032070BD1248C06800F001009C
:1005E0000028EFD10F48C06800F0200020B100BF04
:1005F00020200C49C86000BF0A48C06800F0100005
:1006000048B90848C06900F0010020B90548C06831
:1006100000F0040018B1FFF78DFF0120DBE7002098
:10062000D9E70000002002400146002291F8210095
:10063000022808D00420886300BF002081F8200031
:1006400000BF012070470868006820F00E000B68AA
:1006500018600868006820F001000B68186091F8C5
:10066000403001209840CB6B5860012081F8210078
:1006700000BF002081F8200000BF1046E2E7000024
:1006800070B50446002594F82100022803D0042008
:10069000A063012548E02068006820F00E00216872
:1006A00008602068006820F00100216808601F4988
:1006B0002068884201D1012026E01C4914312068BD
:1006C000884201D110201FE0184928312068884253
:1006D00001D1801518E015493C312068884201D1CC
:1006E000801411E0114950312068884202D14FF442
:1006F000803009E00D4964312068884202D14FF40E
:10070000801001E04FF080700849083948600120EE
:1007100084F8210000BF002084F8200000BF606B37
:1007200010B12046616B8847284670BD0800024022
:1007300070B5044600F078FA06462546681C10B1EC
:1007400004480078054400BF00F06EFA801BA84200
:10075000FAD370BD240000202DE9F04104460E4676
:100760000127002500BF2648007E012802D1022073
:10077000BDE8F08101202249087600BF20680228E8
:1007800013D14CF25030FFF717FF90BB0120FFF759
:1007900099FE4CF25030FFF70FFF074619480069E9
:1007A00020F004001749086123E04CF25030FFF7B5
:1007B00003FFF0B94FF0FF303060A56812E0284623
:1007C000FFF794FE4CF25030FFF7F6FE07460D4857
:1007D000006920F002000B4908610FB1356007E0A5
:1007E00005F58065D4E9021001EB8020A842E6D827
:1007F00000BF00BF00200249087600BF3846B7E7B7
:1008000078000020002002400348006940F080008A
:100810000149086100207047002002402DE9FE4F89
:1008200005468B4617469846012600240020029074
:1008300000BF2448007E012802D10220BDE8FE8FBF
:1008400001202049087600BF4CF25030FFF7B4FE7B
:10085000064686BB012D02D10120029006E0022D42
:1008600002D10220029001E00420029000241EE048
:100870002201B946C24648465146FFF7AAFC80B25B
:100880000190022000FB04B000900199FFF742FEA6
:100890004CF25030FFF790FE06460B48006920F0FE
:1008A00001000949086106B104E0601CC4B2029865
:1008B0008442DDDB00BF00BF00200249087600BF94
:1008C0003046BBE7780000200020024000200849A5
:1008D000096901F0800151B10649054A5160064994
:1008E00051601146096901F0800101B10120704792
:1008F0000020024023016745AB89EFCD2DE9F84781
:1009000003460022944666E14FF0010808FA02F41B
:10091000D1F8008008EA0400A0427DD1DFF8CCA223
:10092000D1F80480A8EB0A09D0453AD014DCB8F11C
:10093000030F50D009DCB8F1000F31D0B8F1010F2E
:100940001CD0B8F1020F49D120E0B8F1110F18D036
:10095000B8F1120F42D11EE0B9F5881F25D006DC90
:10096000B9F5803F20D0B9F5801F37D11AE0B9F52D
:10097000001F18D0B9F5041F30D117E0D1F80CC012
:100980002DE0D1F80C8008F1040C28E0D1F80C809F
:1009900008F1080C23E0D1F80C8008F10C0C1EE0E3
:1009A00000BF00BF00BF00BF00BF00BFD1F808807C
:1009B000B8F1000F02D14FF0040C0BE0D1F8088021
:1009C000B8F1010F03D14FF0080C1C6102E04FF0A9
:1009D000080C5C6103E04FF0000C00E000BF00BFBA
:1009E000FF2801D8984601E003F104084646FF2895
:1009F00002D84FEA820803E0A2F108084FEA88080B
:100A00004746D6F800804FF00F0909FA07F928EA9F
:100A100009080CFA07F900E085E048EA0908C6F879
:100A20000080D1F8048008F08058B8F1805F7AD156
:100A300000BFDFF8BC81D8F8188048F00108DFF863
:100A4000B091C9F81880C846D8F8188008F0010895
:100A5000CDF8008000BF00BF4FEAB9384FEA9209D5
:100A600058F829504FEA82784FEA18794FF00F086A
:100A700008FA09F825EA0805DFF87881434502D12C
:100A80004FF000080FE0DFF87081434502D14FF0CE
:100A9000010808E0DFF86481434502D14FF0020805
:100AA00001E04FF003084FEA82794FEA197908FA1A
:100AB00009F848EA0505DFF848814FEA920948F845
:100AC0002950D1F8048008F48018B8F5801F0AD1A5
:100AD000DFF83081D8F8008048EA0008DFF8249178
:100AE000C9F8008009E0DFF81C81D8F8008028EA06
:100AF0000008DFF81091C9F80080D1F8048008F4EC
:100B00000018B8F5001F0FD1DFF8F88008F10408CD
:100B1000D8F8008048EA0008DFF8E89009F10409F5
:100B2000C9F800800EE055E0DFF8D88008F104082D
:100B3000D8F8008028EA0008DFF8C89009F1040915
:100B4000C9F80080D1F8048008F40038B8F5003FF7
:100B50000ED1DFF8B080A8F10408D8F8008048EA88
:100B60000008DFF8A090A9F10409C9F800800DE0A1
:100B7000DFF89080A8F10408D8F8008028EA00087F
:100B8000DFF88090A9F10409C9F80080D1F8048049
:100B900008F48038B8F5803F0ED1DFF86880A8F1FE
:100BA0000808D8F8008048EA0008DFF85890A9F152
:100BB0000809C9F800800DE0DFF84880A8F10808AE
:100BC000D8F8008028EA0008DFF83890A9F1080971
:100BD000C9F80080521CD1F8008028FA02F8B8F158
:100BE000000F7FF491AEBDE8F887000000001110FF
:100BF0000010024000080140000C014000100140BC
:100C0000080001400804014010B5C26821EA02034F
:100C100002EA010443EA0443036110BD0AB1016121
:100C200001E00B0403617047014800687047000051
:100C30001C00002003480068034909780844014962
:100C4000086070471C0000202400002010B50848F0
:100C5000006840F0100006490860032000F0A8F882
:100C60000F2000F007F800F02BF8002010BD000066
:100C70000020024070B504460E4800784FF47A71A7
:100C8000B1FBF0F00C490968B1FBF0F5284600F023
:100C9000F9FB08B1012070BD102C07D200222146BB
:100CA000501E00F047F80548046001E00120F2E71B
:100CB0000020F0E724000020280000202000002071
:100CC00008B500BF1148806940F001000F498861F4
:100CD0000846806900F00100009000BF00BF00BF1F
:100CE0000846C06940F08050C8610846C06900F0FD
:100CF0008050009000BF00BF00BF0549486820F049
:100D0000E06040F00070486000BF08BD0010024085
:100D10000000014001460846002809DB00F01F03DF
:100D200001229A4043099B0003F1E023C3F800210C
:100D300000BF70472DE9F05F80460D46164600273C
:100D400001F054F9074639462A46334601F00700B8
:100D5000C0F1070ABAF1040F02D94FF0040A01E00A
:100D6000C0F1070AD14600F1040ABAF1070F02D216
:100D70004FF0000A01E0A0F1030AD4464FF0010A47
:100D80000AFA09FAAAF1010A0AEA020A0AFA0CFAAC
:100D90004FF0010B0BFA0CFBABF1010B0BEA030B51
:100DA0004AEA0B042146404601F028F9BDE8F09FCD
:100DB00000BF00F00702064B19684FF6FF03194009
:100DC000044B0B4343EA0221014B196000BF7047FB
:100DD0000CED00E00000FA0570B504460D460CB9B4
:100DE000012070BD5A48006800F00700A8420ED2EA
:100DF0005748006820F00700284355490860084616
:100E0000006800F00700A84201D00120E9E720783F
:100E100000F0020002281DD1207800F00400042810
:100E200005D14C48406840F4E0604A494860207869
:100E300000F00800082805D14648406840F460509A
:100E4000444948604348406820F0F000A1680843E6
:100E500040494860207800F0010078B360680128BC
:100E600006D13C48006800F4003090B90120B8E792
:100E70006068022806D13748006800F0007040B969
:100E80000120AEE73348006800F0020008B90120F5
:100E9000A7E73048406820F00300616808432D4907
:100EA0004860FFF7C1FE064609E0FFF7BDFE801B64
:100EB00041F28831884202D9032092E707E02548B1
:100EC000406800F00C006168B0EB810FEDD1204864
:100ED000006800F00700A8420ED91D48006820F005
:100EE000070028431A4908600846006800F0070018
:100EF000A84201D0012074E7207800F00400042803
:100F000007D11448406820F4E060E16808431149C3
:100F10004860207800F00800082808D10D48406893
:100F200020F46050216940EAC1000A49486000F09D
:100F30003FF808494968C1F30311074A515CC840AA
:100F40000649086006480068FFF794FE002048E75D
:100F500000200240001002403F2600082800002028
:100F60002000002001480068704700002800002091
:100F700000B5FFF7F7FF04494968C1F30221034AAE
:100F8000515CC84000BD0000001002404F26000820
:100F900000B5FFF7E7FF04494968C1F3C221034ADE
:100FA000515CC84000BD0000001002404F26000800
:100FB00070B500210022002400230020134D696831
:100FC00001F00C05F5B1042D02D0082D19D101E076
:100FD0000F4819E00F4DC1F38346AB5D01F4803536
:100FE00055B10A4D6D68C5F340450B4E725D084D15
:100FF0005D43B5FBF2F402E0084D03FB05F4204627
:1010000002E000BF024800BF00BF70BD00100240F8
:1010100000127A002D2600083D26000800093D0038
:10102000F8B504460CB90120F8BD207800F00100A5
:10103000002878D0F848406800F00C0004280CD054
:10104000F548406800F00C00082811D1F2484068CB
:1010500000F48030B0F5803F0AD1EF48006800F41A
:10106000003000285FD0606800285CD10120DBE7F9
:1010700000BF6068B0F5803F06D1E748006840F4E3
:101080008030E549086028E0606858B9E2480068A7
:1010900020F48030E04908600846006820F4802091
:1010A00008601AE06068B0F5A02F0BD1DA4800683C
:1010B00040F48020D84908600846006840F4803039
:1010C00008600AE0D448006820F48030D249086003
:1010D0000846006820F48020086000BF606888B17E
:1010E000FFF7A2FD054606E0FFF79EFD401B6428C2
:1010F00001D9032098E7C848006800F400300028B0
:10110000F2D010E0FFF790FD054606E0FFF78CFDFA
:10111000401B642801D9032086E7BF48006800F41B
:1011200000300028F2D1207800F00200022857D1C8
:10113000B948406800F00C0050B1B748406800F072
:101140000C00082818D1B448406800F4803098B9E1
:10115000B148006800F0020020B12069012801D0E8
:10116000012061E7AC48006820F0F800616940EABE
:10117000C100A949086033E02069E8B10120A7490E
:101180000860FFF751FD054606E0FFF74DFD401BE7
:10119000022801D9032047E79F48006800F00200B9
:1011A0000028F2D09C48006820F0F800616940EA0D
:1011B000C1009949086013E0002098490860FFF7D2
:1011C00033FD054606E0FFF72FFD401B022801D93D
:1011D000032029E79048006800F002000028F2D1BF
:1011E000207800F0080008282DD1A069B8B10120AE
:1011F0008B490860FFF718FD054606E0FFF714FD70
:10120000401B022801D903200EE78348406A00F002
:1012100002000028F2D0012000F086FC13E000203C
:101220007F490860FFF700FD054606E0FFF7FCFC7C
:10123000401B022801D90320F6E67748406A00F0F7
:1012400002000028F2D1207800F00400042873D1B5
:1012500000277148C06900F0805070B900BF6E4827
:10126000C06940F080506C49C8610846C06900F010
:101270008050009000BF00BF01276A48006800F45A
:101280008070B0B96748006840F4807065490860B4
:10129000FFF7CAFC054606E0FFF7C6FC401B6428C2
:1012A00001D90320C0E65F48006800F48070002880
:1012B000F2D000BFE068012806D15748006A40F02C
:1012C00001005549086227E0E06858B95248006AB1
:1012D00020F00100504908620846006A20F004002E
:1012E000086219E0E06805280BD14B48006A40F01D
:1012F0000400494908620846006A40F0010008629B
:101300000AE04548006A20F00100434908620846A7
:10131000006A20F00400086200BFE068A0B1FFF797
:1013200083FC054609E0FFF77FFC401B41F2883152
:10133000884202D9032077E622E03748006A00F0AD
:1013400002000028EFD012E0FFF76EFC054608E02F
:10135000FFF76AFC401B41F28831884201D9032023
:1013600062E62D48006A00F002000028F0D1012F4B
:1013700005D12948C06920F080502749C86100BFC5
:10138000E069C8B32448406800F00C00082860D029
:10139000E069022848D1002020490866FFF744FC94
:1013A000054606E0FFF740FC401B022801D9032058
:1013B0003AE61948006800F000700028F2D1206A6F
:1013C000B0F5803F07D11448406820F40030A16890
:1013D000084311494860D4E9080108430E494968A7
:1013E00021F4741108430C49486001200B49086638
:1013F000FFF71AFC054607E03DE0FFF715FC401B30
:10140000022801D903200FE60348006800F00070AD
:101410000028F2D02FE000000010024000004242FD
:101420008004424200700040002014490866FFF723
:10143000FBFB054606E0FFF7F7FB401B022801D93E
:101440000320F1E50E48006800F000700028F2D19A
:1014500011E0E069012800D1E6E50948466806F494
:101460008031206A814204D106F47011606A8142A1
:1014700001D00120D8E50020D6E50000000042425E
:101480000010024070B504462546681EB0F1807F0A
:1014900001D301200FE0681E4FF0E02148610F21C9
:1014A0004FF0FF3000F0AAFD00204FF0E0218861EE
:1014B00007200861002070BDF8B504460E461746A7
:1014C00094F8420020282ED106B10FB90120F8BDB2
:1014D00001202063002060633A463146204600F038
:1014E000BDFC0546EDB9206B012819D100BF0020D5
:1014F000009020680068009020684068009000BF5D
:1015000000BF00BF00BF21680C3151E8001F41F04F
:10151000100021680C3141E80002002AF3D100E0FC
:1015200001252846D3E70220D1E7000070B5054623
:101530000C460C492868884213D101200A490870DA
:101540000A4804800A4840780A4908704FF400515C
:101550000948FFF759FB40F2054205490748FFF7E4
:10156000ABFF70BD003801401000002012000020C9
:101570000010002014000020001001403000002066
:10158000704700002DE9F84F044620680568206880
:10159000C668206847694FF00009CA4605F00F0980
:1015A000B9F1000F0AD105F0200038B106F0200093
:1015B00020B1204600F055FBBDE8F88FB9F1000FCF
:1015C0007BD007F0010018B906F49070002874D0A1
:1015D00005F0010030B106F4807018B1606C40F085
:1015E0000100606405F0040030B107F0010018B19B
:1015F000606C40F00200606405F0020030B107F05A
:10160000010018B1606C40F00400606405F008004F
:1016100048B106F0200010B907F0010018B1606C65
:1016200040F008006064606C002845D005F02000A0
:1016300028B106F0200010B1204600F012FB20680F
:101640004069C0F3801A606C00F0080010B9BAF16C
:10165000000F2CD0204600F0BEFA2068406900F050
:10166000400000B300BF00BF2168143151E8001FE3
:1016700021F040002168143141E80002002AF3D132
:1016800000BFE06B50B17748E16B4863E06BFEF759
:10169000F7FF88B1E06B416B88470DE02046FFF70C
:1016A0006FFF09E009E02046FFF76AFF04E02046EB
:1016B000FFF766FF002060647EE7206B012877D18A
:1016C00005F01000002873D006F010000028FAD0B2
:1016D00000BF0020009020680068009020684068EB
:1016E000009000BF00BF2068406900F04000002863
:1016F0005FD0E06B006840681FFA80F8B8F1000F17
:1017000055D0A08D404552DDA4F82E80E06B806955
:10171000202843D000BF00BF21680C3151E8001FD2
:1017200021F4807021680C3141E80002002AF3D1D5
:1017300000BF00BF00BF2168143151E8001F21F035
:1017400001002168143141E80002002AF3D100BFF2
:1017500000BF00BF2168143151E8001F21F0400094
:101760002168143141E80002002AF3D100BF202093
:1017700084F842000020206300BF00BF21680C31C4
:1017800051E8001F21F0100021680C3141E80002EF
:10179000002AF3D100BFE06BFEF746FF0220606332
:1017A000A08DE28D801A81B22046FFF7BFFE03E7CD
:1017B00042E0A08DE18D401A1FFA80F8E08DD0B391
:1017C000B8F1000F37D000BF00BF21680C3151E8DD
:1017D000001F21F4907021680C3141E80002002ABA
:1017E000F3D100BF00BF00BF2168143151E8001FD2
:1017F00021F001002168143141E80002002AF3D1F0
:1018000000BF202084F842000020206300BF00BFFA
:1018100021680C3151E8001F21F0100021680C31C3
:1018200041E80002002AF3D100BF02206063414674
:101830002046FFF77BFEBFE605F0800030B106F0E2
:10184000800018B1204600F029FBB5E605F0400005
:1018500030B106F0400018B1204600F0F2F9ABE6D6
:1018600000BFA9E6C31B000810B504460CB901204F
:1018700010BDA06900B100E000BF94F8410028B994
:10188000002084F84000204600F02AF8242084F844
:1018900041002068C06820F400502168C8602046DC
:1018A00000F05EFA2068006920F490402168086129
:1018B0002068406920F02A00216848612068C068DB
:1018C00040F400502168C86000206064202084F843
:1018D000410084F842000020606300BFC8E70000B8
:1018E00010B586B004460020029003900490059045
:1018F0001A49206888422ED100BF1948806940F4F7
:101900008040174988610846806900F48040019052
:1019100000BF00BF00BF0846806940F00400886136
:101920000846806900F00400019000BF00BF481520
:101930000290022003900320059002A90948FEF7B7
:10194000DDFF4FF48060029000200390049002A914
:101950000448FEF7D3FF06B010BD00000038014078
:10196000001002400008014070472DE9F84F04467E
:101970000E46174699464FF0000A94F84100202879
:101980004AD106B117B90120BDE8F88F0020606484
:10199000212084F84100FFF747F98246A784E784B5
:1019A000A068B0F5805F04D1206910B90025B04669
:1019B00002E035464FF000081BE05346002280212C
:1019C0002046CDF8009000F099FA08B10320DBE73B
:1019D00045B9B8F80000C0F308002168486008F174
:1019E000020803E02878216848606D1CE08C401EE6
:1019F000E084E08C0028E0D15346002240212046BC
:101A0000CDF8009000F07AFA08B10320BCE720205E
:101A100084F841000020B7E70220B5E7704700BF17
:101A2000FEE7000000B585B0002001900290039011
:101A3000049000BF1D48806940F010001B49886178
:101A40000846806900F01000009000BF00BF00BF92
:101A50000846806940F0200088610846806900F0EF
:101A60002000009000BF00BF00BF0846806940F022
:101A7000040088610846806900F00400009000BFFF
:101A800000BF00224FF400510948FFF7C7F84FF498
:101A90000050019001200290002003900220049049
:101AA00001A90348FEF72AFF05B000BD001002405F
:101AB0000010014010B5002201212520FFF73AF95E
:101AC0002520FFF727F910BD10B51148114908600E
:101AD0004FF4E130486000210E488160C16001612F
:101AE0000C21416100218161C161FFF7BDFE08B198
:101AF000FEF7E5FC07480068C06840F010000549A3
:101B00000968C860C82204490248FFF7D5FC10BD27
:101B100000380140300000200010002000BFFEE728
:101B200000BFFEE77047000008B508490968C9080A
:101B30004FF47A72B1FBF2F14143009100BF00BF54
:101B400000994A1E00920029F9D108BD2800002002
:101B5000704710B5FFF76EF810BD00B58FB02821A3
:101B600005A8FEF7C5FB14216846FEF7C1FB01205E
:101B700005900004069000200790012009900220A3
:101B80000C90C1030D914FF4E0110E9105A8FFF7E1
:101B900047FA08B1FEF793FC0F2000900220019055
:101BA000002002904FF480600390002004900221F6
:101BB0006846FFF711F908B1FEF781FC0FB000BDD0
:101BC000704770B505466C6A0020E085E0842046C9
:101BD000FFF7D6FC70BD00BF00BF02680C3252E8B0
:101BE000002F22F4907102680C3242E80013002B9F
:101BF000F3D100BF00BF00BF0268143252E8002FCB
:101C000022F001010268143242E80013002BF3D1E4
:101C100000BF016B01290ED100BF00BF02680C326A
:101C200052E8002F22F0100102680C3242E8001343
:101C3000002BF3D100BF202180F842100021016366
:101C4000704710B504462068C06820F04000216845
:101C5000C860202084F841002046FFF7DFFE002006
:101C600010BDF8B5044694F84200222875D1A0684A
:101C7000B0F5805F0CD1206950B90025A66A2068B4
:101C80004068C0F308003080A06A801CA06215E0A4
:101C9000A56A0026A068B0F5805F03D0A06828B9C7
:101CA000206918B920684068287004E020684068FE
:101CB00000F07F002870A06A401CA062E08D401EEA
:101CC00080B2E085002846D12068C06820F020005E
:101CD0002168C8602068C06820F480702168C860EE
:101CE0002068406920F0010021684861202084F8C4
:101CF000420000206063206B012826D10020206371
:101D000000BF00BF21680C3151E8001F21F0100016
:101D100021680C3141E80002002AF3D100BF20689D
:101D2000006800F0100010280AD100BF00200090C9
:101D300020680068009020684068009000BF00BFE5
:101D4000A18D2046FFF7F2FB02E02046FFF70CFED4
:101D50000020F8BD01E00020FBE70220F9E70000C9
:101D600070B504462168096921F44051E2681143C5
:101D7000226811612269A1681143626941EA020582
:101D80002168C96841F20C62914329432268D160FD
:101D90002168496921F44071A269114322685161A7
:101DA0002D4A2168914202D1FFF7F2F801E0FFF7D6
:101DB000DFF800EBC00101EB001162689200B1FB9B
:101DC000F2F100EBC00202EB001263689B00B2FB71
:101DD000F3F26423B2FBF3F202EBC20303EB021251
:101DE000A1EB8201322202EB01116422B1FBF2F17C
:101DF00001F0F00100EBC00202EB001263689B00EF
:101E0000B2FBF3F26423B2FBF3F201EB021200EB3C
:101E1000C00101EB001163689B00B1FBF3F100EB23
:101E2000C00303EB00136668B600B3FBF6F3642649
:101E3000B3FBF6F303EBC30606EB0313A1EB83013D
:101E4000322303EB01116423B1FBF3F101F00F0125
:101E500011442268916070BD0038014010B50346FE
:101E600099629A85DA8500205864222083F842001E
:101E7000186928B11868C06840F480701C68E06078
:101E80001868406940F001001C6860611868C0680B
:101E900040F020001C68E060002010BD014691F871
:101EA0004100212828D18868B0F5805F0BD10869EE
:101EB00048B90A6A1088C0F308000B685860086ABD
:101EC000801C086205E00B6A581C086218780B68D1
:101ED0005860C88C401E80B2C88458B90868C06871
:101EE00020F080000B68D8600868C06840F04000AF
:101EF0000B68D860002070470220FCE72DE9F04114
:101F000004460D4617469846069E34E0701C88B37A
:101F10002EB1FEF789FEA0EB0800B0422BD900BF1E
:101F200000BF21680C3151E8001F21F4D0702168F6
:101F30000C3141E80002002AF3D100BF00BF00BF0E
:101F40002168143151E8001F21F00100216814318B
:101F500041E80002002AF3D100BF202084F84100AC
:101F600084F8420000BF002084F8400000BF032036
:101F7000BDE8F081FFE7206800682840A84201D151
:101F8000012000E00020B842C0D00020F0E70000AF
:101F900010B50248FFF7F6FA10BD0000300000202F
:101FA00000BFFEE710B504460A230122024920467D
:101FB000FFF7DBFC10BD00002B26000810B504461F
:101FC0000A23012202492046FFF7CFFC10BD000082
:101FD0002A26000810B504460A2301220249204699
:101FE000FFF7C3FC10BD00002C2600080248006863
:101FF000C0F30220704700000CED00E010B500288F
:1020000004DB0A07130E054A135406E00A07140EF0
:10201000034A00F00F031B1FD45410BD00E400E07E
:1020200018ED00E000BF704700BF054A126802F0DB
:102030004002002AF9D0C2B2014B1B1D1A60704742
:102040000038014010B50446206807490840B0F147
:10205000005F08D1606805490860206800F0E0FA78
:1020600002480068804710BD0000FE2F2C000020B1
:102070002DE9F05F06460F4690460024B3463D46E4
:10208000A1461BE068784FEA002A287840EA0A0A4D
:10209000AD1C2046611C8CB20D4921F810A0B4F58E
:1020A000806F07D100244FF48062584600F026FA72
:1020B0000BF5006B09F102001FFA80F9C145E1D36D
:1020C00024B122460249584600F018FABDE8F09FB4
:1020D00098000020FEF7BAFDFFF73FFDFFF7A2FCD6
:1020E000FFF7F2FCFFF7E6FC0122DE49DE4800F0D4
:1020F000F1F9DC4800884FF6FF7188420FD1DB48C8
:10210000406800F07F40B0F1006F08D1D8A0FEF722
:1021100073F80A20FEF70CFBD448FFF793FF9FE10A
:10212000DA48007830B1012838D002287ED0032860
:1021300033D17EE10320D6490880D64800780128B3
:102140002BD10020D3490870D3480088012824D11E
:10215000D2480078EE2820D10CE0CD4801880088D4
:10216000401ECB4B1880CEA0FEF746F84FF47A7095
:10217000FEF7DEFAC64800880028EEDC06E0CD480F
:10218000FFF71CFF4FF47A70FEF7D2FAC1480078CF
:102190000028F4D00120BD49087060E1BD480078F6
:1021A00001284AD10020BB490870C248FFF7FAFE57
:1021B000BA480078012803D0B8480078022834D102
:1021C0000320B34908800020BB490880BB49088030
:1021D00000BFAF4801880088401CAD4A1080AF485E
:1021E000405C0028F5D11AE0B548006800EB80009B
:1021F0004000B3490860A948A5490988405C3038C7
:10220000AF4909680844AE490860AB480088401CE3
:10221000A94908809E480088401C9D4908809F4825
:102220009B490988405C0028DED100E006E0A14817
:10223000FFF7C4FE02209549087010E1A14800781C
:1022400010B1012870D170E09248007801286AD15D
:102250000020904908709148007801282ED19848B4
:102260000068802812D99848006800F07F40B0F1DB
:10227000006F1CD180228949C91C7C48FFF7F8FEF9
:102280008F48006880388E49086010E08E480068EA
:1022900000F07F40B0F1006F09D189487F49C91C27
:1022A00002687248FFF7E4FE0020854908600120BB
:1022B000844908707F48FFF775FE34E0774800785E
:1022C000022830D17E480068B0F5806F14D97E486E
:1022D000006800F07F40B0F1006F1ED14FF48062C3
:1022E0006E49C91C6148FFF7C3FE75480068A0F538
:1022F00080607349086010E07348006800F07F4018
:10230000B0F1006F09D16E486449C91C0268574892
:10231000FFF7AEFE00206A49086001206949087095
:102320006448FFF73FFE82E080E05A4800780128C9
:102330007BD10020574908705848007801282CD1DB
:102340005F480068802811D960490978491E474ACA
:10235000802303FB01201A465049C91CFFF788FE61
:10236000574800688038564908600FE05749097897
:10237000491E3E4A802303FB012051490A68474910
:10238000C91CFFF775FE00204D49086001204D492A
:1023900008704848FFF706FE47E0404800780228EA
:1023A0002ED147480068B0F5806F12D947490978A7
:1023B000491E2E4A531403FB01201A463749C91CF3
:1023C000FFF756FE3E480068A0F580603C49086073
:1023D0000FE03E490978491E244A531403FB0120AB
:1023E00037490A682D49C91CFFF742FE00203449CD
:1023F00008600120334908702E48FFF7D3FD14E030
:1024000026480078042810D12A48FFF7E3FD00BFD2
:10241000204800780028FBD000201E49087025487D
:10242000FFF7C0FD03201949087000E000BF00BF9E
:1024300015E00E48406800F07F40B0F1006F0DD10C
:1024400001222349084800F059F809A0FDF7D4FEFD
:102450000A20FEF76DF90548FFF7F4FD00BF00BF45
:102460005EE600000E000020005800080030000862
:10247000BFAACABCD6B4D0D0464C415348D3C3BB84
:10248000A7B4FAC2EB21210D0A0D0A0006000020B4
:10249000000000201000002012000020001000208A
:1024A000D7BCB1B8B5B9BCC6CAB13A2564730D0A78
:1024B0000000000030000020020000200400002086
:1024C0000800002007000020071000201400002052
:1024D0000C00002030B503460C461546002207E0EC
:1024E000184600F008F824F812009B1C501C82B219
:1024F000AA42F5DB30BD0146088870472DE9F04F50
:1025000085B080468A461746B8F1006F02D3B8F10D
:10251000206F02D305B0BDE8F08FFEF7D7F9A8F120
:10252000006B4FEA9B25CBF34809C9F50074A7421D
:1025300000DC3C4655E04FF0006101EB85208A1439
:102540002B49FFF7C7FF00260BE009EB06002849DF
:1025500031F810004FF6FF71884200D003E0701C84
:1025600086B2A642F1DB00BFA64222DA002001902B
:10257000012002900490C00600EB8520039069467C
:1025800001A8FEF7E9F8002608E03AF8160006EB85
:102590000901174A22F81100701C86B2A642F4DB2A
:1025A0004FF0006101EB85208A14114900F022F8F8
:1025B00004E022465146404600F01CF8A74200D1F4
:1025C00010E06D1C4FF000090AEB440A08EB4408C8
:1025D000381B87B2B7F5007F02DD4FF4007400E0CE
:1025E0003C46A8E700BFFEF70FF900BF92E70000E6
:1025F000980800202DE9F04104460E4617460025B4
:102600000AE036F815C06246002321460120FEF795
:1026100005F9A41C681C85B2BD42F2DBBDE8F0815F
:1026200000BF80F3088800BF70474306150203040B
:1026300005060708090A0B0C0D0E0F101001020009
:102640000000000000000001020304060708090062
:1026500000000001020304007826000800000020AA
:102660003000000028010008A826000830000020E3
:10267000D81700004401000800000000000000001E
:1026800000000000FFFF000000000000000000004C
:102690000000000000000000100000000100000029
:0826A0000024F400000000001A
:04000005080000ED02
:00000001FF
